{
  "contractName": "Dummy_Token",
  "abi": [
    {
      "inputs": [],
      "stateMutability": "nonpayable",
      "type": "constructor"
    },
    {
      "anonymous": false,
      "inputs": [
        {
          "indexed": true,
          "internalType": "address",
          "name": "_owner",
          "type": "address"
        },
        {
          "indexed": true,
          "internalType": "address",
          "name": "_spender",
          "type": "address"
        },
        {
          "indexed": false,
          "internalType": "uint256",
          "name": "_value",
          "type": "uint256"
        }
      ],
      "name": "Approve",
      "type": "event"
    },
    {
      "anonymous": false,
      "inputs": [
        {
          "indexed": true,
          "internalType": "address",
          "name": "_from",
          "type": "address"
        },
        {
          "indexed": true,
          "internalType": "address",
          "name": "_to",
          "type": "address"
        },
        {
          "indexed": false,
          "internalType": "uint256",
          "name": "_value",
          "type": "uint256"
        }
      ],
      "name": "Transfer",
      "type": "event"
    },
    {
      "inputs": [
        {
          "internalType": "address",
          "name": "",
          "type": "address"
        },
        {
          "internalType": "address",
          "name": "",
          "type": "address"
        }
      ],
      "name": "allowance",
      "outputs": [
        {
          "internalType": "uint256",
          "name": "",
          "type": "uint256"
        }
      ],
      "stateMutability": "view",
      "type": "function",
      "constant": true
    },
    {
      "inputs": [
        {
          "internalType": "address",
          "name": "",
          "type": "address"
        }
      ],
      "name": "balance",
      "outputs": [
        {
          "internalType": "uint256",
          "name": "",
          "type": "uint256"
        }
      ],
      "stateMutability": "view",
      "type": "function",
      "constant": true
    },
    {
      "inputs": [],
      "name": "decimal",
      "outputs": [
        {
          "internalType": "uint256",
          "name": "",
          "type": "uint256"
        }
      ],
      "stateMutability": "view",
      "type": "function",
      "constant": true
    },
    {
      "inputs": [],
      "name": "name",
      "outputs": [
        {
          "internalType": "string",
          "name": "",
          "type": "string"
        }
      ],
      "stateMutability": "view",
      "type": "function",
      "constant": true
    },
    {
      "inputs": [],
      "name": "symbol",
      "outputs": [
        {
          "internalType": "string",
          "name": "",
          "type": "string"
        }
      ],
      "stateMutability": "view",
      "type": "function",
      "constant": true
    },
    {
      "inputs": [],
      "name": "totalsupply",
      "outputs": [
        {
          "internalType": "uint256",
          "name": "",
          "type": "uint256"
        }
      ],
      "stateMutability": "view",
      "type": "function",
      "constant": true
    },
    {
      "inputs": [
        {
          "internalType": "address",
          "name": "_to",
          "type": "address"
        },
        {
          "internalType": "uint256",
          "name": "_value",
          "type": "uint256"
        }
      ],
      "name": "transfer",
      "outputs": [
        {
          "internalType": "bool",
          "name": "success",
          "type": "bool"
        }
      ],
      "stateMutability": "nonpayable",
      "type": "function"
    },
    {
      "inputs": [
        {
          "internalType": "address",
          "name": "_spender",
          "type": "address"
        },
        {
          "internalType": "uint256",
          "name": "_value",
          "type": "uint256"
        }
      ],
      "name": "approve",
      "outputs": [
        {
          "internalType": "bool",
          "name": "success",
          "type": "bool"
        }
      ],
      "stateMutability": "nonpayable",
      "type": "function"
    },
    {
      "inputs": [
        {
          "internalType": "address",
          "name": "_from",
          "type": "address"
        },
        {
          "internalType": "address",
          "name": "_to",
          "type": "address"
        },
        {
          "internalType": "uint256",
          "name": "_value",
          "type": "uint256"
        }
      ],
      "name": "transferfrom",
      "outputs": [
        {
          "internalType": "bool",
          "name": "success",
          "type": "bool"
        }
      ],
      "stateMutability": "nonpayable",
      "type": "function"
    }
  ],
  "bytecode": "0x60806040526040518060400160405280600b81526020017f64756d6d7920746f6b656e000000000000000000000000000000000000000000815250600090816200004a919062000379565b506040518060400160405280600981526020017f64756d20746f6b656e00000000000000000000000000000000000000000000008152506001908162000091919062000379565b5069d3c21bcecceda10000006002556012600355348015620000b257600080fd5b50600254600460003373ffffffffffffffffffffffffffffffffffffffff1673ffffffffffffffffffffffffffffffffffffffff1681526020019081526020016000208190555062000460565b600081519050919050565b7f4e487b7100000000000000000000000000000000000000000000000000000000600052604160045260246000fd5b7f4e487b7100000000000000000000000000000000000000000000000000000000600052602260045260246000fd5b600060028204905060018216806200018157607f821691505b60208210810362000197576200019662000139565b5b50919050565b60008190508160005260206000209050919050565b60006020601f8301049050919050565b600082821b905092915050565b600060088302620002017fffffffffffffffffffffffffffffffffffffffffffffffffffffffffffffffff82620001c2565b6200020d8683620001c2565b95508019841693508086168417925050509392505050565b6000819050919050565b6000819050919050565b60006200025a620002546200024e8462000225565b6200022f565b62000225565b9050919050565b6000819050919050565b620002768362000239565b6200028e620002858262000261565b848454620001cf565b825550505050565b600090565b620002a562000296565b620002b28184846200026b565b505050565b5b81811015620002da57620002ce6000826200029b565b600181019050620002b8565b5050565b601f8211156200032957620002f3816200019d565b620002fe84620001b2565b810160208510156200030e578190505b620003266200031d85620001b2565b830182620002b7565b50505b505050565b600082821c905092915050565b60006200034e600019846008026200032e565b1980831691505092915050565b60006200036983836200033b565b9150826002028217905092915050565b6200038482620000ff565b67ffffffffffffffff811115620003a0576200039f6200010a565b5b620003ac825462000168565b620003b9828285620002de565b600060209050601f831160018114620003f15760008415620003dc578287015190505b620003e885826200035b565b86555062000458565b601f19841662000401866200019d565b60005b828110156200042b5784890151825560018201915060208501945060208101905062000404565b868310156200044b578489015162000447601f8916826200033b565b8355505b6001600288020188555050505b505050505050565b610c1e80620004706000396000f3fe608060405234801561001057600080fd5b50600436106100935760003560e01c806376809ce31161006657806376809ce31461013457806395d89b4114610152578063a9059cbb14610170578063dd62ed3e146101a0578063e3d670d7146101d057610093565b806306fdde0314610098578063095ea7b3146100b657806363b0545f146100e657806372dd529b14610116575b600080fd5b6100a0610200565b6040516100ad91906108d6565b60405180910390f35b6100d060048036038101906100cb9190610991565b61028e565b6040516100dd91906109ec565b60405180910390f35b61010060048036038101906100fb9190610a07565b610380565b60405161010d91906109ec565b60405180910390f35b61011e610606565b60405161012b9190610a69565b60405180910390f35b61013c61060c565b6040516101499190610a69565b60405180910390f35b61015a610612565b60405161016791906108d6565b60405180910390f35b61018a60048036038101906101859190610991565b6106a0565b60405161019791906109ec565b60405180910390f35b6101ba60048036038101906101b59190610a84565b610809565b6040516101c79190610a69565b60405180910390f35b6101ea60048036038101906101e59190610ac4565b61082e565b6040516101f79190610a69565b60405180910390f35b6000805461020d90610b20565b80601f016020809104026020016040519081016040528092919081815260200182805461023990610b20565b80156102865780601f1061025b57610100808354040283529160200191610286565b820191906000526020600020905b81548152906001019060200180831161026957829003601f168201915b505050505081565b600081600560003373ffffffffffffffffffffffffffffffffffffffff1673ffffffffffffffffffffffffffffffffffffffff16815260200190815260200160002060008573ffffffffffffffffffffffffffffffffffffffff1673ffffffffffffffffffffffffffffffffffffffff168152602001908152602001600020819055508273ffffffffffffffffffffffffffffffffffffffff163373ffffffffffffffffffffffffffffffffffffffff167f6e11fb1b7f119e3f2fa29896ef5fdf8b8a2d0d4df6fe90ba8668e7d8b2ffa25e8460405161036e9190610a69565b60405180910390a36001905092915050565b6000600460008573ffffffffffffffffffffffffffffffffffffffff1673ffffffffffffffffffffffffffffffffffffffff168152602001908152602001600020548211156103ce57600080fd5b600560008573ffffffffffffffffffffffffffffffffffffffff1673ffffffffffffffffffffffffffffffffffffffff16815260200190815260200160002060003373ffffffffffffffffffffffffffffffffffffffff1673ffffffffffffffffffffffffffffffffffffffff1681526020019081526020016000205482111561045757600080fd5b81600460008673ffffffffffffffffffffffffffffffffffffffff1673ffffffffffffffffffffffffffffffffffffffff16815260200190815260200160002060008282546104a69190610b80565b9250508190555081600460008573ffffffffffffffffffffffffffffffffffffffff1673ffffffffffffffffffffffffffffffffffffffff16815260200190815260200160002060008282546104fc9190610bb4565b9250508190555081600560008673ffffffffffffffffffffffffffffffffffffffff1673ffffffffffffffffffffffffffffffffffffffff16815260200190815260200160002060003373ffffffffffffffffffffffffffffffffffffffff1673ffffffffffffffffffffffffffffffffffffffff168152602001908152602001600020600082825461058f9190610b80565b925050819055508273ffffffffffffffffffffffffffffffffffffffff168473ffffffffffffffffffffffffffffffffffffffff167fddf252ad1be2c89b69c2b068fc378daa952ba7f163c4a11628f55a4df523b3ef846040516105f39190610a69565b60405180910390a3600190509392505050565b60025481565b60035481565b6001805461061f90610b20565b80601f016020809104026020016040519081016040528092919081815260200182805461064b90610b20565b80156106985780601f1061066d57610100808354040283529160200191610698565b820191906000526020600020905b81548152906001019060200180831161067b57829003601f168201915b505050505081565b600081600460003373ffffffffffffffffffffffffffffffffffffffff1673ffffffffffffffffffffffffffffffffffffffff1681526020019081526020016000205410156106ee57600080fd5b81600460003373ffffffffffffffffffffffffffffffffffffffff1673ffffffffffffffffffffffffffffffffffffffff168152602001908152602001600020600082825461073d9190610b80565b9250508190555081600460008573ffffffffffffffffffffffffffffffffffffffff1673ffffffffffffffffffffffffffffffffffffffff16815260200190815260200160002060008282546107939190610bb4565b925050819055508273ffffffffffffffffffffffffffffffffffffffff163373ffffffffffffffffffffffffffffffffffffffff167fddf252ad1be2c89b69c2b068fc378daa952ba7f163c4a11628f55a4df523b3ef846040516107f79190610a69565b60405180910390a36001905092915050565b6005602052816000526040600020602052806000526040600020600091509150505481565b60046020528060005260406000206000915090505481565b600081519050919050565b600082825260208201905092915050565b60005b83811015610880578082015181840152602081019050610865565b60008484015250505050565b6000601f19601f8301169050919050565b60006108a882610846565b6108b28185610851565b93506108c2818560208601610862565b6108cb8161088c565b840191505092915050565b600060208201905081810360008301526108f0818461089d565b905092915050565b600080fd5b600073ffffffffffffffffffffffffffffffffffffffff82169050919050565b6000610928826108fd565b9050919050565b6109388161091d565b811461094357600080fd5b50565b6000813590506109558161092f565b92915050565b6000819050919050565b61096e8161095b565b811461097957600080fd5b50565b60008135905061098b81610965565b92915050565b600080604083850312156109a8576109a76108f8565b5b60006109b685828601610946565b92505060206109c78582860161097c565b9150509250929050565b60008115159050919050565b6109e6816109d1565b82525050565b6000602082019050610a0160008301846109dd565b92915050565b600080600060608486031215610a2057610a1f6108f8565b5b6000610a2e86828701610946565b9350506020610a3f86828701610946565b9250506040610a508682870161097c565b9150509250925092565b610a638161095b565b82525050565b6000602082019050610a7e6000830184610a5a565b92915050565b60008060408385031215610a9b57610a9a6108f8565b5b6000610aa985828601610946565b9250506020610aba85828601610946565b9150509250929050565b600060208284031215610ada57610ad96108f8565b5b6000610ae884828501610946565b91505092915050565b7f4e487b7100000000000000000000000000000000000000000000000000000000600052602260045260246000fd5b60006002820490506001821680610b3857607f821691505b602082108103610b4b57610b4a610af1565b5b50919050565b7f4e487b7100000000000000000000000000000000000000000000000000000000600052601160045260246000fd5b6000610b8b8261095b565b9150610b968361095b565b9250828203905081811115610bae57610bad610b51565b5b92915050565b6000610bbf8261095b565b9150610bca8361095b565b9250828201905080821115610be257610be1610b51565b5b9291505056fea264697066735822122024fe9dd38ae9d4e419ca713795b89e9ab238d69a655828612b43bff4724d345964736f6c63430008110033",
  "immutableReferences": {},
  "source": "// SPDX-License-Identifier: MIT\npragma solidity >= 0.4.22 <0.9.0;\n\ncontract Dummy_Token{\n\n    string public name = \"dummy token\";\n    string public symbol = \"dum token\";\n    uint public totalsupply = 1000000000000000000000000;\n    uint public decimal = 18;\n\n    event Transfer(\n        address indexed _from,\n        address indexed _to,\n        uint _value\n    );\n\n    event Approve(\n        address indexed _owner,\n        address indexed _spender,\n        uint _value\n    );\n\n    mapping(address => uint256) public balance;\n    mapping(address => mapping(address => uint256)) public allowance;\n\n    constructor() public{\n        balance[msg.sender] = totalsupply;\n    }\n\n    function transfer(address _to, uint256 _value) public returns(bool success){\n        require(balance[msg.sender] >= _value);\n        balance[msg.sender] -= _value;\n        balance[_to] += _value;\n        emit Transfer(msg.sender, _to, _value);\n        return true;\n    }\n\n    function approve(address _spender, uint256 _value) public returns(bool success){\n        allowance[msg.sender][_spender] = _value;\n        emit Approve(msg.sender, _spender, _value);\n        return true;\n    }\n\n    function transferfrom(address _from, address _to, uint256 _value) public returns(bool success){\n        require(_value <= balance[_from]);\n        require(_value <= allowance[_from][msg.sender]);\n        balance[_from] -= _value;\n        balance[_to] += _value;\n        allowance[_from][msg.sender] -= _value;\n        emit Transfer(_from,_to, _value);\n        return true;\n    }\n\n\n}",
  "sourcePath": "/home/ec2-user/staking_app_/src/contracts/Dummy_Token.sol",
  "compiler": {
    "name": "solc",
    "version": "0.8.17+commit.8df45f5f.Emscripten.clang"
  },
  "schemaVersion": "3.4.11",
  "updatedAt": "2023-01-12T16:52:16.556Z",
  "networkType": "ethereum",
  "devdoc": {
    "kind": "dev",
    "methods": {},
    "version": 1
  },
  "userdoc": {
    "kind": "user",
    "methods": {},
    "version": 1
  }
}