{
  "contractName": "Staking_Dapp",
  "abi": [
    {
      "inputs": [
        {
          "internalType": "contract Dummy_Token",
          "name": "_dummyToken",
          "type": "address"
        },
        {
          "internalType": "contract Tether_Token",
          "name": "_tetherToken",
          "type": "address"
        }
      ],
      "stateMutability": "nonpayable",
      "type": "constructor"
    },
    {
      "inputs": [],
      "name": "dummy_token",
      "outputs": [
        {
          "internalType": "contract Dummy_Token",
          "name": "",
          "type": "address"
        }
      ],
      "stateMutability": "view",
      "type": "function",
      "constant": true
    },
    {
      "inputs": [
        {
          "internalType": "address",
          "name": "",
          "type": "address"
        }
      ],
      "name": "hasstaked",
      "outputs": [
        {
          "internalType": "bool",
          "name": "",
          "type": "bool"
        }
      ],
      "stateMutability": "view",
      "type": "function",
      "constant": true
    },
    {
      "inputs": [
        {
          "internalType": "address",
          "name": "",
          "type": "address"
        }
      ],
      "name": "isstaking",
      "outputs": [
        {
          "internalType": "bool",
          "name": "",
          "type": "bool"
        }
      ],
      "stateMutability": "view",
      "type": "function",
      "constant": true
    },
    {
      "inputs": [],
      "name": "name",
      "outputs": [
        {
          "internalType": "string",
          "name": "",
          "type": "string"
        }
      ],
      "stateMutability": "view",
      "type": "function",
      "constant": true
    },
    {
      "inputs": [],
      "name": "owner",
      "outputs": [
        {
          "internalType": "address",
          "name": "",
          "type": "address"
        }
      ],
      "stateMutability": "view",
      "type": "function",
      "constant": true
    },
    {
      "inputs": [
        {
          "internalType": "uint256",
          "name": "",
          "type": "uint256"
        }
      ],
      "name": "stakers",
      "outputs": [
        {
          "internalType": "address",
          "name": "",
          "type": "address"
        }
      ],
      "stateMutability": "view",
      "type": "function",
      "constant": true
    },
    {
      "inputs": [
        {
          "internalType": "address",
          "name": "",
          "type": "address"
        }
      ],
      "name": "stakingBalance",
      "outputs": [
        {
          "internalType": "uint256",
          "name": "",
          "type": "uint256"
        }
      ],
      "stateMutability": "view",
      "type": "function",
      "constant": true
    },
    {
      "inputs": [],
      "name": "tether_token",
      "outputs": [
        {
          "internalType": "contract Tether_Token",
          "name": "",
          "type": "address"
        }
      ],
      "stateMutability": "view",
      "type": "function",
      "constant": true
    },
    {
      "inputs": [
        {
          "internalType": "uint256",
          "name": "_amount",
          "type": "uint256"
        }
      ],
      "name": "stakeTokens",
      "outputs": [],
      "stateMutability": "nonpayable",
      "type": "function"
    },
    {
      "inputs": [],
      "name": "unstakeTokens",
      "outputs": [],
      "stateMutability": "nonpayable",
      "type": "function"
    },
    {
      "inputs": [],
      "name": "issuedummy",
      "outputs": [],
      "stateMutability": "nonpayable",
      "type": "function"
    }
  ],
  "bytecode": "0x60806040526040518060400160405280600c81526020017f5374616b696e6720446170700000000000000000000000000000000000000000815250600090816200004a9190620003c3565b503480156200005857600080fd5b50604051620016773803806200167783398181016040528101906200007e91906200056d565b81600260006101000a81548173ffffffffffffffffffffffffffffffffffffffff021916908373ffffffffffffffffffffffffffffffffffffffff16021790555080600360006101000a81548173ffffffffffffffffffffffffffffffffffffffff021916908373ffffffffffffffffffffffffffffffffffffffff16021790555033600160006101000a81548173ffffffffffffffffffffffffffffffffffffffff021916908373ffffffffffffffffffffffffffffffffffffffff1602179055505050620005b4565b600081519050919050565b7f4e487b7100000000000000000000000000000000000000000000000000000000600052604160045260246000fd5b7f4e487b7100000000000000000000000000000000000000000000000000000000600052602260045260246000fd5b60006002820490506001821680620001cb57607f821691505b602082108103620001e157620001e062000183565b5b50919050565b60008190508160005260206000209050919050565b60006020601f8301049050919050565b600082821b905092915050565b6000600883026200024b7fffffffffffffffffffffffffffffffffffffffffffffffffffffffffffffffff826200020c565b6200025786836200020c565b95508019841693508086168417925050509392505050565b6000819050919050565b6000819050919050565b6000620002a46200029e62000298846200026f565b62000279565b6200026f565b9050919050565b6000819050919050565b620002c08362000283565b620002d8620002cf82620002ab565b84845462000219565b825550505050565b600090565b620002ef620002e0565b620002fc818484620002b5565b505050565b5b81811015620003245762000318600082620002e5565b60018101905062000302565b5050565b601f82111562000373576200033d81620001e7565b6200034884620001fc565b8101602085101562000358578190505b620003706200036785620001fc565b83018262000301565b50505b505050565b600082821c905092915050565b6000620003986000198460080262000378565b1980831691505092915050565b6000620003b3838362000385565b9150826002028217905092915050565b620003ce8262000149565b67ffffffffffffffff811115620003ea57620003e962000154565b5b620003f68254620001b2565b6200040382828562000328565b600060209050601f8311600181146200043b576000841562000426578287015190505b620004328582620003a5565b865550620004a2565b601f1984166200044b86620001e7565b60005b8281101562000475578489015182556001820191506020850194506020810190506200044e565b8683101562000495578489015162000491601f89168262000385565b8355505b6001600288020188555050505b505050505050565b600080fd5b600073ffffffffffffffffffffffffffffffffffffffff82169050919050565b6000620004dc82620004af565b9050919050565b6000620004f082620004cf565b9050919050565b6200050281620004e3565b81146200050e57600080fd5b50565b6000815190506200052281620004f7565b92915050565b60006200053582620004cf565b9050919050565b620005478162000528565b81146200055357600080fd5b50565b60008151905062000567816200053c565b92915050565b60008060408385031215620005875762000586620004aa565b5b6000620005978582860162000511565b9250506020620005aa8582860162000556565b9150509250929050565b6110b380620005c46000396000f3fe608060405234801561001057600080fd5b50600436106100a95760003560e01c80638da5cb5b116100715780638da5cb5b1461014057806390332cd71461015e578063a5ce413b1461018e578063af3fb4b114610198578063f9075fc6146101c8578063fd5e6dd1146101e6576100a9565b806306fdde03146100ae5780633d9f37cc146100cc57806345bc78ab146100d65780637547c7a31461010657806389c95e9814610122575b600080fd5b6100b6610216565b6040516100c39190610acb565b60405180910390f35b6100d46102a4565b005b6100f060048036038101906100eb9190610b50565b61048e565b6040516100fd9190610b96565b60405180910390f35b610120600480360381019061011b9190610bdd565b6104a6565b005b61012a610782565b6040516101379190610c69565b60405180910390f35b6101486107a8565b6040516101559190610c93565b60405180910390f35b61017860048036038101906101739190610b50565b6107ce565b6040516101859190610cc9565b60405180910390f35b6101966107ee565b005b6101b260048036038101906101ad9190610b50565b6109b6565b6040516101bf9190610cc9565b60405180910390f35b6101d06109d6565b6040516101dd9190610d05565b60405180910390f35b61020060048036038101906101fb9190610bdd565b6109fc565b60405161020d9190610c93565b60405180910390f35b6000805461022390610d4f565b80601f016020809104026020016040519081016040528092919081815260200182805461024f90610d4f565b801561029c5780601f106102715761010080835404028352916020019161029c565b820191906000526020600020905b81548152906001019060200180831161027f57829003601f168201915b505050505081565b600160009054906101000a900473ffffffffffffffffffffffffffffffffffffffff1673ffffffffffffffffffffffffffffffffffffffff163373ffffffffffffffffffffffffffffffffffffffff1614610334576040517f08c379a000000000000000000000000000000000000000000000000000000000815260040161032b90610df2565b60405180910390fd5b60005b60048054905081101561048b5760006004828154811061035a57610359610e12565b5b9060005260206000200160009054906101000a900473ffffffffffffffffffffffffffffffffffffffff1690506000600560008373ffffffffffffffffffffffffffffffffffffffff1673ffffffffffffffffffffffffffffffffffffffff168152602001908152602001600020549050600081111561047657600260009054906101000a900473ffffffffffffffffffffffffffffffffffffffff1673ffffffffffffffffffffffffffffffffffffffff1663a9059cbb83836040518363ffffffff1660e01b8152600401610431929190610e41565b6020604051808303816000875af1158015610450573d6000803e3d6000fd5b505050506040513d601f19601f820116820180604052508101906104749190610e96565b505b5050808061048390610ef2565b915050610337565b50565b60056020528060005260406000206000915090505481565b600081116104e9576040517f08c379a00000000000000000000000000000000000000000000000000000000081526004016104e090610f86565b60405180910390fd5b600360009054906101000a900473ffffffffffffffffffffffffffffffffffffffff1673ffffffffffffffffffffffffffffffffffffffff166363b0545f3330846040518463ffffffff1660e01b815260040161054893929190610fa6565b6020604051808303816000875af1158015610567573d6000803e3d6000fd5b505050506040513d601f19601f8201168201806040525081019061058b9190610e96565b5080600560003373ffffffffffffffffffffffffffffffffffffffff1673ffffffffffffffffffffffffffffffffffffffff168152602001908152602001600020546105d79190610fdd565b600560003373ffffffffffffffffffffffffffffffffffffffff1673ffffffffffffffffffffffffffffffffffffffff16815260200190815260200160002081905550600660003373ffffffffffffffffffffffffffffffffffffffff1673ffffffffffffffffffffffffffffffffffffffff16815260200190815260200160002060009054906101000a900460ff166106cf576004339080600181540180825580915050600190039060005260206000200160009091909190916101000a81548173ffffffffffffffffffffffffffffffffffffffff021916908373ffffffffffffffffffffffffffffffffffffffff1602179055505b6001600760003373ffffffffffffffffffffffffffffffffffffffff1673ffffffffffffffffffffffffffffffffffffffff16815260200190815260200160002060006101000a81548160ff0219169083151502179055506001600660003373ffffffffffffffffffffffffffffffffffffffff1673ffffffffffffffffffffffffffffffffffffffff16815260200190815260200160002060006101000a81548160ff02191690831515021790555050565b600360009054906101000a900473ffffffffffffffffffffffffffffffffffffffff1681565b600160009054906101000a900473ffffffffffffffffffffffffffffffffffffffff1681565b60066020528060005260406000206000915054906101000a900460ff1681565b6000600560003373ffffffffffffffffffffffffffffffffffffffff1673ffffffffffffffffffffffffffffffffffffffff16815260200190815260200160002054905060008111610875576040517f08c379a000000000000000000000000000000000000000000000000000000000815260040161086c9061105d565b60405180910390fd5b600360009054906101000a900473ffffffffffffffffffffffffffffffffffffffff1673ffffffffffffffffffffffffffffffffffffffff1663a9059cbb33836040518363ffffffff1660e01b81526004016108d2929190610e41565b6020604051808303816000875af11580156108f1573d6000803e3d6000fd5b505050506040513d601f19601f820116820180604052508101906109159190610e96565b506000600560003373ffffffffffffffffffffffffffffffffffffffff1673ffffffffffffffffffffffffffffffffffffffff168152602001908152602001600020819055506000600760003373ffffffffffffffffffffffffffffffffffffffff1673ffffffffffffffffffffffffffffffffffffffff16815260200190815260200160002060006101000a81548160ff02191690831515021790555050565b60076020528060005260406000206000915054906101000a900460ff1681565b600260009054906101000a900473ffffffffffffffffffffffffffffffffffffffff1681565b60048181548110610a0c57600080fd5b906000526020600020016000915054906101000a900473ffffffffffffffffffffffffffffffffffffffff1681565b600081519050919050565b600082825260208201905092915050565b60005b83811015610a75578082015181840152602081019050610a5a565b60008484015250505050565b6000601f19601f8301169050919050565b6000610a9d82610a3b565b610aa78185610a46565b9350610ab7818560208601610a57565b610ac081610a81565b840191505092915050565b60006020820190508181036000830152610ae58184610a92565b905092915050565b600080fd5b600073ffffffffffffffffffffffffffffffffffffffff82169050919050565b6000610b1d82610af2565b9050919050565b610b2d81610b12565b8114610b3857600080fd5b50565b600081359050610b4a81610b24565b92915050565b600060208284031215610b6657610b65610aed565b5b6000610b7484828501610b3b565b91505092915050565b6000819050919050565b610b9081610b7d565b82525050565b6000602082019050610bab6000830184610b87565b92915050565b610bba81610b7d565b8114610bc557600080fd5b50565b600081359050610bd781610bb1565b92915050565b600060208284031215610bf357610bf2610aed565b5b6000610c0184828501610bc8565b91505092915050565b6000819050919050565b6000610c2f610c2a610c2584610af2565b610c0a565b610af2565b9050919050565b6000610c4182610c14565b9050919050565b6000610c5382610c36565b9050919050565b610c6381610c48565b82525050565b6000602082019050610c7e6000830184610c5a565b92915050565b610c8d81610b12565b82525050565b6000602082019050610ca86000830184610c84565b92915050565b60008115159050919050565b610cc381610cae565b82525050565b6000602082019050610cde6000830184610cba565b92915050565b6000610cef82610c36565b9050919050565b610cff81610ce4565b82525050565b6000602082019050610d1a6000830184610cf6565b92915050565b7f4e487b7100000000000000000000000000000000000000000000000000000000600052602260045260246000fd5b60006002820490506001821680610d6757607f821691505b602082108103610d7a57610d79610d20565b5b50919050565b7f63616c6c6572206d75737420626520746865206f776e657220666f722074686960008201527f732066756e6374696f6e00000000000000000000000000000000000000000000602082015250565b6000610ddc602a83610a46565b9150610de782610d80565b604082019050919050565b60006020820190508181036000830152610e0b81610dcf565b9050919050565b7f4e487b7100000000000000000000000000000000000000000000000000000000600052603260045260246000fd5b6000604082019050610e566000830185610c84565b610e636020830184610b87565b9392505050565b610e7381610cae565b8114610e7e57600080fd5b50565b600081519050610e9081610e6a565b92915050565b600060208284031215610eac57610eab610aed565b5b6000610eba84828501610e81565b91505092915050565b7f4e487b7100000000000000000000000000000000000000000000000000000000600052601160045260246000fd5b6000610efd82610b7d565b91507fffffffffffffffffffffffffffffffffffffffffffffffffffffffffffffffff8203610f2f57610f2e610ec3565b5b600182019050919050565b7f616d6f756e742063616e206e6f74206265207a65726f00000000000000000000600082015250565b6000610f70601683610a46565b9150610f7b82610f3a565b602082019050919050565b60006020820190508181036000830152610f9f81610f63565b9050919050565b6000606082019050610fbb6000830186610c84565b610fc86020830185610c84565b610fd56040830184610b87565b949350505050565b6000610fe882610b7d565b9150610ff383610b7d565b925082820190508082111561100b5761100a610ec3565b5b92915050565b7f7374616b696e672062616c616e6365206973207a65726f000000000000000000600082015250565b6000611047601783610a46565b915061105282611011565b602082019050919050565b600060208201905081810360008301526110768161103a565b905091905056fea264697066735822122065a2ec434cf8a201ea59b09a1e4515bf30fc93bffe74e24ee7db4ab7495113cb64736f6c63430008110033",
  "immutableReferences": {},
  "source": "// SPDX-License-Identifier: MIT\npragma solidity >=0.4.22 <0.9.0;\n\nimport \"./Dummy_Token.sol\";\nimport \"./Tether_Token.sol\";\n\ncontract Staking_Dapp{\n\n    string public name = \"Staking Dapp\";\n    address public owner;\n    Dummy_Token public dummy_token;\n    Tether_Token public tether_token;\n\n    address[] public stakers;\n    mapping(address => uint) public stakingBalance;\n    mapping(address => bool) public hasstaked;\n    mapping(address => bool) public isstaking;\n\n    constructor(Dummy_Token _dummyToken, Tether_Token _tetherToken){\n\n        dummy_token = _dummyToken;\n        tether_token = _tetherToken;\n        owner = msg.sender;\n\n    }\n\n    function stakeTokens(uint _amount) public{\n\n        require(_amount > 0, \"amount can not be zero\"); //if amount is zero or not\n\n        tether_token.transferfrom(msg.sender, address(this), _amount); // transfered tether to contract address\n\n        stakingBalance[msg.sender] = stakingBalance[msg.sender] + _amount; // updated the staking balace of user\n\n        if(!hasstaked[msg.sender]){\n            stakers.push(msg.sender);       //added user to the stakers array \n        }\n\n        isstaking[msg.sender] = true;       //updtaed the status of staking or not\n        hasstaked[msg.sender] = true;\n\n    }\n\n    function unstakeTokens() public{\n\n        uint balance = stakingBalance[msg.sender];  //fetched balance of staker into a varible\n\n        require(balance > 0, \"staking balance is zero\"); //we checked if balance is zero or not\n\n        tether_token.transfer(msg.sender, balance); //we transfered back tether token to user \n\n        stakingBalance[msg.sender] = 0; // set the staking balance to 0\n\n        isstaking[msg.sender] = false; //updated the staking status\n\n    }\n\n    function issuedummy() public{\n\n        require(msg.sender == owner, \"caller must be the owner for this function\");\n\n        for(uint i = 0; i<stakers.length ; i++){\n            address recipient = stakers[i];\n            uint balance = stakingBalance[recipient];\n            if(balance > 0){\n                dummy_token.transfer(recipient, balance);\n            }\n        }\n    }\n\n\n\n}",
  "sourcePath": "/home/ec2-user/staking_app_/src/contracts/Staking_Dapp.sol",
  "compiler": {
    "name": "solc",
    "version": "0.8.17+commit.8df45f5f.Emscripten.clang"
  },
  "schemaVersion": "3.4.11",
  "updatedAt": "2023-01-12T16:52:16.624Z",
  "networkType": "ethereum",
  "devdoc": {
    "kind": "dev",
    "methods": {},
    "version": 1
  },
  "userdoc": {
    "kind": "user",
    "methods": {},
    "version": 1
  }
}